{
  "_format": "hh-sol-artifact-1",
  "contractName": "Identity",
  "sourceName": "contracts/Identity.sol",
  "abi": [
    {
      "anonymous": false,
      "inputs": [
        {
          "indexed": true,
          "internalType": "address",
          "name": "userAddress",
          "type": "address"
        },
        {
          "indexed": false,
          "internalType": "string",
          "name": "name",
          "type": "string"
        },
        {
          "indexed": false,
          "internalType": "string",
          "name": "email",
          "type": "string"
        }
      ],
      "name": "UserRegistered",
      "type": "event"
    },
    {
      "inputs": [
        {
          "internalType": "address",
          "name": "_userAddress",
          "type": "address"
        }
      ],
      "name": "getUser",
      "outputs": [
        {
          "internalType": "string",
          "name": "",
          "type": "string"
        },
        {
          "internalType": "string",
          "name": "",
          "type": "string"
        },
        {
          "internalType": "bool",
          "name": "",
          "type": "bool"
        }
      ],
      "stateMutability": "view",
      "type": "function"
    },
    {
      "inputs": [
        {
          "internalType": "string",
          "name": "_name",
          "type": "string"
        },
        {
          "internalType": "string",
          "name": "_email",
          "type": "string"
        }
      ],
      "name": "registerUser",
      "outputs": [],
      "stateMutability": "nonpayable",
      "type": "function"
    },
    {
      "inputs": [
        {
          "internalType": "address",
          "name": "",
          "type": "address"
        }
      ],
      "name": "users",
      "outputs": [
        {
          "internalType": "string",
          "name": "name",
          "type": "string"
        },
        {
          "internalType": "string",
          "name": "email",
          "type": "string"
        },
        {
          "internalType": "bool",
          "name": "isRegistered",
          "type": "bool"
        }
      ],
      "stateMutability": "view",
      "type": "function"
    }
  ],
  "bytecode": "0x608060405234801561001057600080fd5b50610759806100206000396000f3fe608060405234801561001057600080fd5b50600436106100415760003560e01c80631d2e4afd146100465780636f77926b1461005b578063a87430ba14610086575b600080fd5b61005961005436600461049a565b610099565b005b61006e6100693660046104fe565b61013f565b60405161007d93929190610574565b60405180910390f35b61006e6100943660046104fe565b6102c2565b6040805160608101825283815260208082018490526001828401523360009081529081905291909120815181906100d09082610635565b50602082015160018201906100e59082610635565b50604091820151600291909101805460ff19169115159190911790555133907f92822564bab8864c3a47b34e8d23fbce5c46234eb5da261f94087b995ac0f33b9061013390859085906106f5565b60405180910390a25050565b606080600080600080866001600160a01b03166001600160a01b03168152602001908152602001600020604051806060016040529081600082018054610184906105ac565b80601f01602080910402602001604051908101604052809291908181526020018280546101b0906105ac565b80156101fd5780601f106101d2576101008083540402835291602001916101fd565b820191906000526020600020905b8154815290600101906020018083116101e057829003601f168201915b50505050508152602001600182018054610216906105ac565b80601f0160208091040260200160405190810160405280929190818152602001828054610242906105ac565b801561028f5780601f106102645761010080835404028352916020019161028f565b820191906000526020600020905b81548152906001019060200180831161027257829003601f168201915b50505091835250506002919091015460ff1615156020918201528151908201516040909201519097919650945092505050565b6000602081905290815260409020805481906102dd906105ac565b80601f0160208091040260200160405190810160405280929190818152602001828054610309906105ac565b80156103565780601f1061032b57610100808354040283529160200191610356565b820191906000526020600020905b81548152906001019060200180831161033957829003601f168201915b50505050509080600101805461036b906105ac565b80601f0160208091040260200160405190810160405280929190818152602001828054610397906105ac565b80156103e45780601f106103b9576101008083540402835291602001916103e4565b820191906000526020600020905b8154815290600101906020018083116103c757829003601f168201915b5050506002909301549192505060ff1683565b634e487b7160e01b600052604160045260246000fd5b600082601f83011261041e57600080fd5b813567ffffffffffffffff80821115610439576104396103f7565b604051601f8301601f19908116603f01168101908282118183101715610461576104616103f7565b8160405283815286602085880101111561047a57600080fd5b836020870160208301376000602085830101528094505050505092915050565b600080604083850312156104ad57600080fd5b823567ffffffffffffffff808211156104c557600080fd5b6104d18683870161040d565b935060208501359150808211156104e757600080fd5b506104f48582860161040d565b9150509250929050565b60006020828403121561051057600080fd5b81356001600160a01b038116811461052757600080fd5b9392505050565b6000815180845260005b8181101561055457602081850181015186830182015201610538565b506000602082860101526020601f19601f83011685010191505092915050565b606081526000610587606083018661052e565b8281036020840152610599818661052e565b9150508215156040830152949350505050565b600181811c908216806105c057607f821691505b6020821081036105e057634e487b7160e01b600052602260045260246000fd5b50919050565b601f82111561063057600081815260208120601f850160051c8101602086101561060d5750805b601f850160051c820191505b8181101561062c57828155600101610619565b5050505b505050565b815167ffffffffffffffff81111561064f5761064f6103f7565b6106638161065d84546105ac565b846105e6565b602080601f83116001811461069857600084156106805750858301515b600019600386901b1c1916600185901b17855561062c565b600085815260208120601f198616915b828110156106c7578886015182559484019460019091019084016106a8565b50858210156106e55787850151600019600388901b60f8161c191681555b5050505050600190811b01905550565b604081526000610708604083018561052e565b828103602084015261071a818561052e565b9594505050505056fea2646970667358221220987821ad6b264a5b0294396e28225df760f9eee02086df977e9db9d291f745ee64736f6c63430008120033",
  "linkReferences": {},
  "deployedLinkReferences": {}
}