{
  "_format": "hh-sol-artifact-1",
  "contractName": "Identity",
  "sourceName": "contracts/Identity.sol",
  "abi": [
    {
      "anonymous": false,
      "inputs": [
        {
          "indexed": true,
          "internalType": "address",
          "name": "userAddress",
          "type": "address"
        },
        {
          "indexed": false,
          "internalType": "string",
          "name": "name",
          "type": "string"
        },
        {
          "indexed": false,
          "internalType": "string",
          "name": "email",
          "type": "string"
        }
      ],
      "name": "UserRegistered",
      "type": "event"
    },
    {
      "inputs": [
        {
          "internalType": "address",
          "name": "_userAddress",
          "type": "address"
        }
      ],
      "name": "getUser",
      "outputs": [
        {
          "internalType": "string",
          "name": "",
          "type": "string"
        },
        {
          "internalType": "string",
          "name": "",
          "type": "string"
        },
        {
          "internalType": "bool",
          "name": "",
          "type": "bool"
        }
      ],
      "stateMutability": "view",
      "type": "function"
    },
    {
      "inputs": [
        {
          "internalType": "string",
          "name": "_name",
          "type": "string"
        },
        {
          "internalType": "string",
          "name": "_email",
          "type": "string"
        }
      ],
      "name": "registerUser",
      "outputs": [],
      "stateMutability": "nonpayable",
      "type": "function"
    },
    {
      "inputs": [
        {
          "internalType": "address",
          "name": "",
          "type": "address"
        }
      ],
      "name": "users",
      "outputs": [
        {
          "internalType": "string",
          "name": "name",
          "type": "string"
        },
        {
          "internalType": "string",
          "name": "email",
          "type": "string"
        },
        {
          "internalType": "bool",
          "name": "isRegistered",
          "type": "bool"
        }
      ],
      "stateMutability": "view",
      "type": "function"
    }
  ],
  "bytecode": "0x608060405234801561001057600080fd5b50610c45806100206000396000f3fe608060405234801561001057600080fd5b50600436106100415760003560e01c80631d2e4afd146100465780636f77926b14610062578063a87430ba14610094575b600080fd5b610060600480360381019061005b91906106a2565b6100c6565b005b61007c60048036038101906100779190610778565b610254565b60405161008b9392919061083f565b60405180910390f35b6100ae60048036038101906100a99190610778565b610401565b6040516100bd9392919061083f565b60405180910390f35b6000803373ffffffffffffffffffffffffffffffffffffffff1673ffffffffffffffffffffffffffffffffffffffff16815260200190815260200160002060020160009054906101000a900460ff1615610155576040517f08c379a000000000000000000000000000000000000000000000000000000000815260040161014c906108d0565b60405180910390fd5b6040518060600160405280838152602001828152602001600115158152506000803373ffffffffffffffffffffffffffffffffffffffff1673ffffffffffffffffffffffffffffffffffffffff16815260200190815260200160002060008201518160000190816101c69190610b06565b5060208201518160010190816101dc9190610b06565b5060408201518160020160006101000a81548160ff0219169083151502179055509050503373ffffffffffffffffffffffffffffffffffffffff167f92822564bab8864c3a47b34e8d23fbce5c46234eb5da261f94087b995ac0f33b8383604051610248929190610bd8565b60405180910390a25050565b6060806000806000808673ffffffffffffffffffffffffffffffffffffffff1673ffffffffffffffffffffffffffffffffffffffff1681526020019081526020016000206040518060600160405290816000820180546102b39061091f565b80601f01602080910402602001604051908101604052809291908181526020018280546102df9061091f565b801561032c5780601f106103015761010080835404028352916020019161032c565b820191906000526020600020905b81548152906001019060200180831161030f57829003601f168201915b505050505081526020016001820180546103459061091f565b80601f01602080910402602001604051908101604052809291908181526020018280546103719061091f565b80156103be5780601f10610393576101008083540402835291602001916103be565b820191906000526020600020905b8154815290600101906020018083116103a157829003601f168201915b505050505081526020016002820160009054906101000a900460ff1615151515815250509050806000015181602001518260400151935093509350509193909250565b60006020528060005260406000206000915090508060000180546104249061091f565b80601f01602080910402602001604051908101604052809291908181526020018280546104509061091f565b801561049d5780601f106104725761010080835404028352916020019161049d565b820191906000526020600020905b81548152906001019060200180831161048057829003601f168201915b5050505050908060010180546104b29061091f565b80601f01602080910402602001604051908101604052809291908181526020018280546104de9061091f565b801561052b5780601f106105005761010080835404028352916020019161052b565b820191906000526020600020905b81548152906001019060200180831161050e57829003601f168201915b5050505050908060020160009054906101000a900460ff16905083565b6000604051905090565b600080fd5b600080fd5b600080fd5b600080fd5b6000601f19601f8301169050919050565b7f4e487b7100000000000000000000000000000000000000000000000000000000600052604160045260246000fd5b6105af82610566565b810181811067ffffffffffffffff821117156105ce576105cd610577565b5b80604052505050565b60006105e1610548565b90506105ed82826105a6565b919050565b600067ffffffffffffffff82111561060d5761060c610577565b5b61061682610566565b9050602081019050919050565b82818337600083830152505050565b6000610645610640846105f2565b6105d7565b90508281526020810184848401111561066157610660610561565b5b61066c848285610623565b509392505050565b600082601f8301126106895761068861055c565b5b8135610699848260208601610632565b91505092915050565b600080604083850312156106b9576106b8610552565b5b600083013567ffffffffffffffff8111156106d7576106d6610557565b5b6106e385828601610674565b925050602083013567ffffffffffffffff81111561070457610703610557565b5b61071085828601610674565b9150509250929050565b600073ffffffffffffffffffffffffffffffffffffffff82169050919050565b60006107458261071a565b9050919050565b6107558161073a565b811461076057600080fd5b50565b6000813590506107728161074c565b92915050565b60006020828403121561078e5761078d610552565b5b600061079c84828501610763565b91505092915050565b600081519050919050565b600082825260208201905092915050565b60005b838110156107df5780820151818401526020810190506107c4565b60008484015250505050565b60006107f6826107a5565b61080081856107b0565b93506108108185602086016107c1565b61081981610566565b840191505092915050565b60008115159050919050565b61083981610824565b82525050565b6000606082019050818103600083015261085981866107eb565b9050818103602083015261086d81856107eb565b905061087c6040830184610830565b949350505050565b7f5573657220697320616c72656164792072656769737465726564000000000000600082015250565b60006108ba601a836107b0565b91506108c582610884565b602082019050919050565b600060208201905081810360008301526108e9816108ad565b9050919050565b7f4e487b7100000000000000000000000000000000000000000000000000000000600052602260045260246000fd5b6000600282049050600182168061093757607f821691505b60208210810361094a576109496108f0565b5b50919050565b60008190508160005260206000209050919050565b60006020601f8301049050919050565b600082821b905092915050565b6000600883026109b27fffffffffffffffffffffffffffffffffffffffffffffffffffffffffffffffff82610975565b6109bc8683610975565b95508019841693508086168417925050509392505050565b6000819050919050565b6000819050919050565b6000610a036109fe6109f9846109d4565b6109de565b6109d4565b9050919050565b6000819050919050565b610a1d836109e8565b610a31610a2982610a0a565b848454610982565b825550505050565b600090565b610a46610a39565b610a51818484610a14565b505050565b5b81811015610a7557610a6a600082610a3e565b600181019050610a57565b5050565b601f821115610aba57610a8b81610950565b610a9484610965565b81016020851015610aa3578190505b610ab7610aaf85610965565b830182610a56565b50505b505050565b600082821c905092915050565b6000610add60001984600802610abf565b1980831691505092915050565b6000610af68383610acc565b9150826002028217905092915050565b610b0f826107a5565b67ffffffffffffffff811115610b2857610b27610577565b5b610b32825461091f565b610b3d828285610a79565b600060209050601f831160018114610b705760008415610b5e578287015190505b610b688582610aea565b865550610bd0565b601f198416610b7e86610950565b60005b82811015610ba657848901518255600182019150602085019450602081019050610b81565b86831015610bc35784890151610bbf601f891682610acc565b8355505b6001600288020188555050505b505050505050565b60006040820190508181036000830152610bf281856107eb565b90508181036020830152610c0681846107eb565b9050939250505056fea264697066735822122016365f4647953eaaca9940a9e48284146bdad5cbf497a15e027c92b7086daa5464736f6c63430008180033",
  "linkReferences": {},
  "deployedLinkReferences": {}
}